:020000040000FA
:06000000ABEF04F012005A
:0A000600010074090000DA00000098
:0400100004000000E8
:0C00140003DB93949386A36AA46A3F0E5A
:100020006F1480096F6EE00E6E148008FCE1FE0E06
:10003000DB50706EFD0EDB50716EFC0EDB50726E8D
:10004000040E606E0F01506B016B006B056B046B4F
:10005000096B086B0D6B0C6B116B106B156B146BD4
:100060001B6B1A6B080E196F186B1F6B1E6B1D6FC5
:100070001C6B200E736EA5681F0E6F1440096F6E07
:10008000E00E6E144008FCE1030EA36E180EA46E81
:100090000F01426B416B456B406B4087000EC3D232
:1000A000BDDAE652A450A31458E06F50DF6EA4509E
:1000B000010B08E0A350010B05E0A490F00E6F14B3
:1000C0000C090AD0A450020B0AE0A350020B07E06F
:1000D000A492F00E6F140A096F6E41D83CD0A45060
:1000E000040B0CE0A350040B09E0F00E6F14080998
:1000F000CDDA02E0A3942FD0A4942DD0A450080B05
:100100000CE0A350080B09E0F00E6F140609BEDAEC
:1001100002E0A39620D0A4961ED0A450100B0CE0B1
:10012000A350100B09E0F00E6F140409AFDA02E0DF
:10013000A39811D0A4980FD0A450200B05E0A35091
:10014000200B02E0A49A07D0A450400B04E0A35077
:10015000400B01E0A49CDF506F6EE55264D25EDA82
:10016000E6520001DB2B040EE76EDB19E8AE02D08D
:10017000E73402D0E750DB5D01E3DB6BDF6A0E0E94
:10018000DF5C13E27CDAEF50E66EDBC0E9FFEA6A7F
:10019000E9BEEA686ADA600EE926000EEA22DF505C
:1001A0000F014FDAACDADF2AEAD7609EE5523BD284
:1001B00035DAE6520001DC51DD5D26E0DC2B040E71
:1001C000E76EDC19E8AE02D0E73402D0E750DC5D20
:1001D00001E3DC6BDF6A0E0EDF5C13E2DCC0E9FFDB
:1001E000EA6AE9BEEA6841DA980EE926000EEA22D8
:1001F000DF500F0126DAEF50E66E41DA80DADF2AAF
:10020000EAD76086000E01D0010EE5520CD206DA64
:10021000020EE1260001DC05DD5D05E0030EDD5D7B
:1002200004E1DC5102E1010EB3D0030EE76EDD19EB
:10023000E8AE02D0E73402D0E750DD5D02E3DF6ACA
:1002400002D0DD29DF6EFC0EDB50080805E2080E47
:10025000F36EFC0EF3CFDBFF32DAFC0EDBCFEFFFE9
:1002600036DA020B26E12BDAEF9C010EDB6AFC0E7C
:10027000DB50F36E010EDBCFF4FFF350F45C1BE2B6
:10028000D950F40F026EFF0EDA20036E010EDB5020
:100290000F010224E96E000E0320EA6EEF5033DAFC
:1002A000060E29DA010EDB50CCD929DA010EDB2A41
:1002B000DED705DAEF8C0BDA010B4BE0F00EDBCF6B
:1002C00000F0F10EF20EF30E00501DDA040E8DD97F
:1002D000080EBDD9FEE1005016DA030E0CDA0FDA73
:1002E000F00EDBCF08F0F10EDBCF09F0F20EDBCF22
:1002F0000AF0F30EDBCF0BF00D0ED8900B320A3262
:1003000009320832E806F9E1E00E0D6A0E6A0F6A5A
:10031000E85008160D5009160E500A160F500B160D
:10032000F00EF10EF20EDBCF06F0F30E06C000F079
:100330000001026A036A030E0016016A026A036A78
:1003400000500810CDD9150E82D9FEE1A3D9EF8651
:100350000DD0A8D9050E1F0B02E080D9FEE1005098
:10036000BFD9030E74D9FEE195D9EF96FD0EDB508F
:10037000030BC9D9C4D9DFCFDDF0A3B402D0A38465
:1003800006D0A3B602D0A38602D0A3A8A388000EED
:10039000006E020EE15C02E2E16AE552E16E00509D
:1003A00042D10001DA51DB5D01E0010C000C36D9CD
:1003B000110EE126030E0001E76EDA19E8AE02D055
:1003C000E73402D0E750DA5D03E30F0EDB6A05D0B5
:1003D000DA29E76E0F0EE7CFDBFFFCD8050E27D931
:1003E0000F0BE76E0C0EE7CFDBFF90D9EF50080B39
:1003F00003E00E0EDB8224D00E0EDB92100EDB6AC1
:100400000C0EDB50F36E100EDBCFF4FFF350F45CF8
:1004100017E27CD9060E6FD9100EDB500F0111D9EF
:10042000EF50E66ED950040F006E100EDB50002422
:10043000E96E000EDA20EA6E62D9100EDB2AE0D7F0
:10044000F00E6F146F6E62D9EE52EF50006E016ABB
:10045000030ED89000360136E804FBE1000E44D9C3
:10046000DB6A030EDB6A2FD9E00BE838E840016A4B
:10047000026A036AE850C8D826D9080B38E00E0E85
:10048000DB80B7D8EFCF03F0020E1F0B02E0E6D8F7
:10049000FEE119D9030B056A066A076AE8500012E3
:1004A000055001120650021207500312C3D8A1D8FA
:1004B000EFCF03F0100E1F0B02E0D0D8FEE1BAD848
:1004C00025D9030E18D9EFCF00F000C001F0006A63
:1004D000026A036A005098D819D9040E0CD9EFCFDC
:1004E00000F0016A026A036A00508ED802D00E0E34
:1004F000DB900F0EDBCFDAF07CD8EECF03F0EECF3F
:1005000004F0EECF05F0EECF06F0EECF07F0EECF21
:1005100008F0EECF09F0EECF0AF0EECF0BF0EECF01
:100520000CF0EECF0DF0EFCF0EF0D9CFE9FFDACF20
:10053000EAFFED50ED500EC0EDFF0DC0EDFF0CC019
:10054000EDFF0BC0EDFF0AC0EDFF09C0EDFF08C0D5
:10055000EDFF07C0EDFF06C0EDFF05C0EDFF04C0D5
:10056000EDFF03C0EDFF02C0EDFF01C0EDFF00C0D5
:10057000EFFF110EE15C02E2E16AE552E16E53D059
:100580004DD8FE0EDB501F0809E11F0E6F14400905
:100590006F6EE00E6E14400811E0FBD71F0E6F1453
:1005A000006EFE0EDB50E00B00106F6EE00E6E145E
:1005B000006EFE0EDB50E00B005CF8E134D0DF5043
:1005C0000E0DF3CFE9FFF4CFEAFF980EE926000EF7
:1005D000EA221200DB500E0DF3CFE9FFF4CFEAFF61
:1005E000600EE926000EEA22120085D888D852EF64
:1005F00003F0D9CFE9FFDACFEAFFEECF00F0EECF7C
:1006000001F0EECF02F01200DE120150DE120250B5
:10061000DE120350DD12DD52DD521200D9CFE6FFAB
:10062000E1CFD9FF1200E552E7CFD9FF120063D81E
:10063000EF50120059D802C0DBFF030E03C0DBFFEE
:100640001200E924E96E000EEA20EA6E1200D8904A
:100650000332023201320032E8061200D89000362E
:10066000013602360336E80612000E0EEA02F3CF18
:10067000EAFFE902F3CFE9FFF450EA261200DF5067
:10068000EA6A600FE96E0F0EEA2212006F6E90DDCB
:1006900000091200005037D8EE5231D890DF020E18
:1006A0007BEF03F0F00EDBCF00F0F10EDBCF01F0BB
:1006B000F20EDBCF02F0F30EDBCF03F012007FDF90
:1006C000050E7BEF03F022D8020E17EF03F0D9508E
:1006D000F00FE96EFF0EDA20EA6E0E0E17EF03F050
:1006E00012D8020EF5EF02F000C0DFFF010E01C0CC
:1006F000DBFF020E1200E926000EEA221200E5528C
:10070000E750EF6E1200E66EDFEF02F00F0EEAEF39
:0207100002F0F5
:0E07120045D807E16EAE0FD06EBC0DD06EAABA
:100720000DD00AD055D80DE1ED500BE16EBE04D0CE
:100730006EBC02D06EAA02D0F36A02D0010EF36E34
:10074000F46AE552E7CFD9FF120029D807E16E8E8F
:100750006E9C6E9A000E30D80BE1FCD739D808E1B8
:10076000ED5006E16E9E6E9C6E9A010E25D8FDE05E
:10077000E552E7CFD9FF1200010EE66EBC0EE66E21
:10078000E66A0AEC00F0E552E552E55250EC00F062
:10079000010EE66EE66AD9DFE552E5521200D9CFC6
:1007A000E6FFE1CFD9FFE150FD0FE96EFF0EDA2041
:1007B000EA6EEE50ED101200E66EE66AAADFE55230
:1007C000E552F3CF00F0F4CF01F0F350F410120033
:1007D000D950FD0FE96EFF0EDA20EA6E010EEE1819
:0207E000120005
:0E07E200D9CFE6FFE1CFD9FF0F0EE126BCEC28
:1007F00003F00F0EE126D7EC01F0EECF00F0EECFC4
:1008000001F0EECF02F0EECF03F0EECF04F0EECF2A
:1008100005F0EECF06F0EECF07F0EECF08F0EECF0A
:1008200009F0EECF0AF0EECF0BF0EECF0CF0EECFEA
:100830000DF0EECF0EF00F6E0F0EE15E0F5000C008
:10084000DFFF010E01C0DBFF020E02C0DBFF030E63
:1008500003C0DBFF040E04C0DBFF050E05C0DBFF99
:10086000060E06C0DBFF070E07C0DBFF080E08C040
:10087000DBFF090E09C0DBFF0A0E0AC0DBFF0B0E0F
:100880000BC0DBFF0C0E0CC0DBFF0D0E0DC0DBFF41
:080890000E0E0EC0DBFFADD718
:08089800060EF66E000EF76E6D
:1008A000000EF86E00010900F550D56F0900F550F3
:1008B000D66F03E1D56701D03DD00900F550D06F68
:1008C0000900F550D16F0900F550D26F09000900F9
:1008D000F550E96E0900F550EA6E090009000900BB
:1008E000F550D36F0900F550D46F09000900F6CF19
:1008F000D7F0F7CFD8F0F8CFD9F0D0C0F6FFD1C0FD
:10090000F7FFD2C0F8FF0001D35302E1D45307E050
:100910000900F550EE6ED307F8E2D407F9D7D7C037
:10092000F6FFD8C0F7FFD9C0F8FF0001D507000EC9
:06093000D65BBFD71200E8
:0A093600000EF36E00EE00F0030E59
:1009400001D81200EA6002D0EE6AFCD7F350E960E9
:060950001200EE6AFCD764
:0A09560012EE00F022EE00F0F86A45
:10096000119C4CEC04F0B9EC04F0F1EC03F0FBD773
:02097000120073
:02097200120071
:04097400000000007F
:00000001FF
