:020000040000FA
:0600000051EF06F01200B2
:0A0006000100C00C0000DA00000049
:0400100004000000E8
:0C001400D9CFE6FFE1CFD9FF939493868B
:10002000A36AA46A3F0E6F1480096F6EE00E6E140F
:100030008008FCE1FE0EDB50706EFD0EDB50716E31
:10004000FC0EDB50726E040E606E0F01506B016B84
:10005000006B056B046B096B086B0D6B0C6B116B04
:10006000106B156B146B1B6B1A6B080E196F186BEA
:100070001F6B1E6B1D6F1C6B200E736EA5681F0E11
:100080006F1440096F6EE00E6E144008FCE1030E21
:10009000A36E180EA46E0F01426B416B456B406B53
:1000A0004087000EE552E7CFD9FF1200D9CFE6FF17
:1000B000E1CFD9FFE652A450A3145EE06F50DF6E8B
:1000C000A450010B08E0A350010B05E0A490F00E32
:1000D0006F140C090AD0A450020B0AE0A350020BC3
:1000E00007E0A492F00E6F140A096F6E4AD842D04E
:1000F000A450040B0EE0A350040B0BE0F00E6F14A1
:1001000008096F6E80D8000902E0A39433D0A4944C
:1001100031D0A450080B0EE0A350080B0BE0F00EFA
:100120006F1406096F6E6FD8000902E0A39622D003
:10013000A49620D0A450100B0EE0A350100B0BE09F
:10014000F00E6F1404096F6E5ED8000902E0A398E8
:1001500011D0A4980FD0A450200B05E0A350200B81
:1001600002E0A49A07D0A450400B04E0A350400B37
:1001700001E0A49CDF506F6EE552E552E7CFD9FF56
:100180001200D9CFE6FFE1CFD9FFE6520001DB2B09
:10019000040EE76EDB19E8AE02D0E73402D0E75078
:1001A000DB5D01E3DB6BDF6A0E0EDF5C26E2DF5016
:1001B000EA6A600FE96E0F0EEA22EF50E66EDBC0CE
:1001C000E9FFEA6AE9BEEA680E0EEA02F3CFEAFF47
:1001D000E902F3CFE9FFF450EA26600EE926000EAB
:1001E000EA22DF500F01E924E96E000EEA20EA6EF0
:1001F000E552E750EF6EDF2AD7D7609EE552E55211
:10020000E7CFD9FF1200D9CFE6FFE1CFD9FFE65201
:100210000001DC51DD5D39E0DC2B040EE76EDC19FA
:10022000E8AE02D0E73402D0E750DC5D01E3DC6BDE
:10023000DF6A0E0EDF5C26E2DCC0E9FFEA6AE9BE97
:10024000EA680E0EEA02F3CFEAFFE902F3CFE9FF14
:10025000F450EA26980EE926000EEA22DF500F013C
:10026000E924E96E000EEA20EA6EEF50E66EDF50F8
:10027000EA6A600FE96E0F0EEA22E552E750EF6E70
:10028000DF2AD7D76086000E01D0010EE552E55275
:10029000E7CFD9FF1200D9CFE6FFE1CFD9FF020E99
:1002A000E1260001DC05DD5D05E0030EDD5D04E116
:1002B000DC5102E1010EC9D1030EE76EDD19E8AE93
:1002C00002D0E73402D0E750DD5D02E3DF6A02D0FE
:1002D000DD29DF6EFC0EDB50080805E2080EF36E28
:1002E000FC0EF3CFDBFFDF500E0DF3CFE9FFF4CFB1
:1002F000EAFF980EE926000EEA22050EE926000E16
:10030000EA22FC0EDBCFEFFFD950F00FE96EFF0EB3
:10031000DA20EA6E0E0EE926000EEA22EF50020BFA
:1003200045E1DF500E0DF3CFE9FFF4CFEAFF980E61
:10033000E926000EEA22050EE926000EEA22EF9CCD
:10034000010EDB6AFC0EDB50F36E010EDBCFF4FF17
:10035000F350F45C3AE2D950F40F026EFF0EDA204B
:10036000036E010EDB500F010224E96E000E032024
:10037000EA6EEF50E66EDF500E0DF3CFE9FFF4CFDB
:10038000EAFF980EE926000EEA22060EE926000E84
:10039000EA22010EDB50E924E96E000EEA20EA6E43
:1003A000E552E750EF6E010EDB2ACCD7DF500E0D81
:1003B000F3CFE9FFF4CFEAFF980EE926000EEA2218
:1003C000050EE926000EEA22EF8CD950F00FE96EF7
:1003D000FF0EDA20EA6E0E0EE926000EEA22EF503A
:1003E000010B01E1B8D0F00EDBCF00F0F10EF20E00
:1003F000F30E0050E66EDF500E0DF3CFE9FFF4CFA1
:10040000EAFF980EE926000EEA22040EE926000E05
:10041000EA22E552E750EF6EF00EDBCF00F0F10E6E
:10042000DBCF01F0F20EDBCF02F0F30EDBCF03F0F7
:10043000080ED8900332023201320032E806F9E1A8
:100440000050E66EDF500E0DF3CFE9FFF4CFEAFF68
:10045000980EE926000EEA22030EE926000EEA2293
:10046000E552E750EF6EF00EDBCF08F0F10EDBCF78
:1004700009F0F20EDBCF0AF0F30EDBCF0BF00D0E1E
:10048000D8900B320A3209320832E806F9E1E00E60
:100490000D6A0E6A0F6AE85008160D5009160E50C4
:1004A0000A160F500B16F00EF10EF20EDBCF06F00F
:1004B000F30E06C000F00001026A036A030E001684
:1004C000016A026A036A00500810E66EDF500E0DE2
:1004D000F3CFE9FFF4CFEAFF980EE926000EEA22F7
:1004E000020EE926000EEA22E552E750EF6EF00E0A
:1004F000DBCF00F0F10EDBCF01F0F20EDBCF02F02C
:10050000F30EDBCF03F0150ED89003320232013226
:100510000032E806F9E10050E66EDF500E0DF3CF31
:10052000E9FFF4CFEAFF980EE926000EEA22EE5228
:10053000E552E750EF6EDF500E0DF3CFE9FFF4CF39
:10054000EAFF980EE926000EEA22020EE926000EC6
:10055000EA22EF865CD0F00EDBCF00F0F10EDBCFAD
:1005600001F0F20EDBCF02F0F30EDBCF03F0050E4D
:100570001F0B07E0D8900036013602360336E80636
:10058000F9E10050E66EDF500E0DF3CFE9FFF4CF36
:10059000EAFF980EE926000EEA22020EE926000E76
:1005A000EA22E552E750EF6EF00EDBCF00F0F10EDD
:1005B000DBCF01F0F20EDBCF02F0F30EDBCF03F066
:1005C000030ED8900332023201320032E806F9E11C
:1005D0000050E66EDF500E0DF3CFE9FFF4CFEAFFD7
:1005E000980EE926000EEA22EE52E552E750EF6E31
:1005F000DF500E0DF3CFE9FFF4CFEAFF980EE926A6
:10060000000EEA22020EE926000EEA22EF96FD0E07
:10061000DB50030BE66EDF500E0DF3CFE9FFF4CF96
:10062000EAFF980EE926000EEA22E552E750EF6E47
:10063000DFCFDDF0A3B402D0A38406D0A3B602D0EE
:10064000A38602D0A3A8A388000E006E020EE15C70
:1006500002E2E16AE552E16E0050E552E7CFD9FFD0
:1006600012000001DA51DB5D01E0010C000CD9CF72
:10067000E6FFE1CFD9FF110EE126030E0001E76E80
:10068000DA19E8AE02D0E73402D0E750DA5D03E3CE
:100690000F0EDB6A05D0DA29E76E0F0EE7CFDBFF1E
:1006A000DB500E0DF3CFE9FFF4CFEAFF600EE92631
:1006B000000EEA22050EE926000EEA22EF500F0B8B
:1006C000E76E0C0EE7CFDBFF0F0EDB500E0DF3CF06
:1006D000E9FFF4CFEAFF600EE926000EEA22EF50B0
:1006E000080B03E00E0EDB8236D00E0EDB92100EEE
:1006F000DB6A0C0EDB50F36E100EDBCFF4FFF35011
:10070000F45C29E20F0EDB500E0DF3CFE9FFF4CFBE
:10071000EAFF600EE926000EEA22060EE926000E28
:10072000EA22100EDB500F01E924E96E000EEA20E8
:10073000EA6EEF50E66ED950040F006E100EDB50DB
:100740000024E96E000EDA20EA6EE552E750EF6E03
:10075000100EDB2ACED7F00E6F146F6E0F0EDB502B
:100760000E0DF3CFE9FFF4CFEAFF600EE926000E8D
:10077000EA22EE52EF50006E016A030ED890003666
:100780000136E804FBE1000E00C0DFFF010E01C0EE
:10079000DBFF020EDB6A030EDB6A0F0EDB500E0D71
:1007A000F3CFE9FFF4CFEAFF600EE926000EEA225C
:1007B000020EE926000EEA22EF50E00BE838E8408E
:1007C000016A026A036AE850DE120150DE1202502A
:1007D000DE120350DD12DD52DD520F0EDB500E0D26
:1007E000F3CFE9FFF4CFEAFF600EE926000EEA221C
:1007F000020EE926000EEA22EF50080B01E19FD01D
:100800000E0EDB80D9CFE9FFDACFEAFFEECF00F0A2
:10081000EECF01F0EECF02F0EFCF03F0020E1F0B90
:1008200007E0D8900036013602360336E806F9E1D3
:100830000F0EDB500E0DF3CFE9FFF4CFEAFF600E91
:10084000E926000EEA22020EE926000EEA22EF5007
:10085000030B056A066A076AE85000120550011288
:10086000065002120750031200C0DFFF010E01C044
:10087000DBFF020E02C0DBFF030E03C0DBFFD9CF9C
:10088000E9FFDACFEAFFEECF00F0EECF01F0EECFD6
:1008900002F0EFCF03F0100E1F0B07E0D8900036E8
:1008A000013602360336E806F9E100C0DFFF010E2B
:1008B00001C0DBFF020E02C0DBFF030E03C0DBFF43
:1008C0000F0EDB500E0DF3CFE9FFF4CFEAFF600E01
:1008D000E926000EEA22030EE926000EEA22EFCFF7
:1008E00000F000C001F0006A026A036A0050DE12E4
:1008F0000150DE120250DE120350DD12DD52DD52D5
:100900000F0EDB500E0DF3CFE9FFF4CFEAFF600EC0
:10091000E926000EEA22040EE926000EEA22EFCFB5
:1009200000F0016A026A036A0050DE120150DE1212
:100930000250DE120350DD12DD52DD5202D00E0EE7
:10094000DB900F0EDBCFDAF0D9CFE9FFDACFEAFF89
:10095000EECF00F0EECF01F0EECF02F0EECF03F0DD
:10096000EECF04F0EECF05F0EECF06F0EECF07F0BD
:10097000EECF08F0EECF09F0EECF0AF0EECF0BF09D
:10098000EECF0CF0EECF0DF0EFCF0EF0D9CFE9FFA8
:10099000DACFEAFFED50ED500EC0EDFF0DC0EDFFD8
:1009A0000CC0EDFF0BC0EDFF0AC0EDFF09C0EDFF6D
:1009B00008C0EDFF07C0EDFF06C0EDFF05C0EDFF6D
:1009C00004C0EDFF03C0EDFF02C0EDFF01C0EDFF6D
:1009D00000C0EFFF110EE15C02E2E16AE552E16E58
:1009E000E552E7CFD9FF1200D9CFE6FFE1CFD9FF1B
:1009F000FE0EDB501F0809E11F0E6F1440096F6ED9
:100A0000E00E6E14400811E0FBD71F0E6F14006E4D
:100A1000FE0EDB50E00B00106F6EE00E6E14006EE9
:100A2000FE0EDB50E00B005CF8E1E552E7CFD9FFAA
:020A30001200B2
:0E0A3200D9CFE6FFE1CFD9FFE150FD0FE96E0D
:100A4000FF0EDA20EA6EEE50ED1007E16EAE16D022
:100A50006EBC14D06EAA14D011D0D950FD0FE96E1F
:100A6000FF0EDA20EA6E010EEE180DE1ED500BE1FB
:100A70006EBE04D06EBC02D06EAA02D0F36A02D061
:100A8000010EF36EF46AE552E7CFD9FF1200D9CF19
:100A9000E6FFE1CFD9FFE150FD0FE96EFF0EDA204E
:100AA000EA6EEE50ED1011E16E8E6E9C6E9A000EA5
:100AB000E66EE66ABEDFE552E552F3CF00F0F4CF12
:100AC00001F0F350F4101CE1F2D7D950FD0FE96E9C
:100AD000FF0EDA20EA6E010EEE1812E1ED5010E181
:100AE0006E9E6E9C6E9A010EE66EE66AA2DFE5527D
:100AF000E552F3CF00F0F4CF01F0F350F410F3E03F
:100B0000E552E7CFD9FF1200010EE66EBC0EE66E8D
:100B1000E66A0AEC00F0E552E552E55256EC00F0C8
:0E0B2000010EE66EE66AB3DFE552E552120002
:020B2E00D9CF1D
:100B3000E6FFE1CFD9FF0F0EE12684EC05F00F0EA2
:100B4000E12637EC03F0EECF00F0EECF01F0EECF70
:100B500002F0EECF03F0EECF04F0EECF05F0EECFD3
:100B600006F0EECF07F0EECF08F0EECF09F0EECFB3
:100B70000AF0EECF0BF0EECF0CF0EECF0DF0EECF93
:100B80000EF00F6E0F0EE15E0F5000C0DFFF010E82
:100B900001C0DBFF020E02C0DBFF030E03C0DBFF60
:100BA000040E04C0DBFF050E05C0DBFF060E06C009
:100BB000DBFF070E07C0DBFF080E08C0DBFF090ED6
:100BC00009C0DBFF0A0E0AC0DBFF0B0E0BC0DBFF08
:100BD0000C0E0CC0DBFF0D0E0DC0DBFF0E0E0EC0A9
:040BE000DBFFADD7B3
:0C0BE400060EF66E000EF76E000EF86EA6
:100BF00000010900F550D56F0900F550D66F03E1EB
:100C0000D56701D03DD00900F550D06F0900F550EF
:100C1000D16F0900F550D26F09000900F550E96E57
:100C20000900F550EA6E090009000900F550D36F7C
:100C30000900F550D46F09000900F6CFD7F0F7CFBF
:100C4000D8F0F8CFD9F0D0C0F6FFD1C0F7FFD2C0AE
:100C5000F8FF0001D35302E1D45307E00900F55037
:100C6000EE6ED307F8E2D407F9D7D7C0F6FFD8C0A5
:100C7000F7FFD9C0F8FF0001D507000ED65BBFD73C
:020C8000120060
:0E0C8200000EF36E00EE00F0030E01D812001B
:100C9000EA6002D0EE6AFCD7F350E9601200EE6A17
:020CA000FCD77F
:0E0CA20012EE00F022EE00F0F86A119CF2EC67
:0E0CB00005F05FEC06F097EC05F0FBD71200A4
:020CBE00120022
:040CC0000000000030
:00000001FF
