:020000040000FA
:06000000DAEF0FF0120020
:020006001200E6
:060008006EEF0DF0120086
:02000E001200DE
:0400100000000000EC
:06001800B9EF0DF012002B
:02001E000100DF
:0C00200010000000DA00000004000000E6
:04002C0052EC05F09D
:10003000FB0EDBCFF3FFDB06F35000090AE0A0EC78
:1000400005F0FA0E0BEC06F0F3E1151CF1E1010EE0
:1000500001D0000E81EF05F052EC05F03B0EE124DB
:1000600002E3E168E652E16E010EDB6A020EDB6A32
:10007000F90EDBCFF6FFFA0EDBCFF7FFFB0EDBCF7F
:10008000F8FF0800F550DF6EDF5002E1A5EF04F045
:10009000250EDF5C02E098EF04F0030EDB6A040E2D
:1000A000DB6A050EDB6A060EDB6A070EDB6ABAEC5A
:1000B00004F02D0EDF5C0CE02B0EDF5C09E0200E5F
:1000C000DF5C06E0230EDF5C03E0300EDF5C1AE14C
:1000D000DF50300A14E0130A0FE0030A0AE00B0AAB
:1000E00005E0060AE4E1030EDB80E1D7030EDB82C4
:1000F000DED7030EDB84DBD7030EDB86D8D7030EF7
:10010000DB88D5D72A0EDF5C1BE1B6EC04F004ECEB
:1001100005F010E0030EDB8006680768130EDBCFE6
:100120000BF0140EDBCF0CF030EC0CF0040E04C01E
:10013000DBFF03D0130EEDEC04F0BAEC04F00BD0AF
:10014000090EDB6A5BEC05F003E0CFEC05F0FAD7B3
:10015000090EEDEC04F0030EDBB0DB982E0EDF5C35
:100160001BE1BAEC04F02A0EDF5C0BE1B6EC04F004
:1001700004EC05F003E1130E3FEC05F0BAEC04F0DB
:100180000BD0090EDB6A5BEC05F003E0CFEC05F069
:10019000FAD7090E3FEC05F0680EDF5C07E1BAEC18
:1001A00004F0680EDF5C1DE1030E18D0740EDF5CF6
:1001B00017E07A0EDF5C14E0480EDF5C06E0540EB8
:1001C000DF5C03E05A0EDF5C02E1020E07D06C0E2A
:1001D000DF5C03E06A0EDF5C04E1010E92EC05F0E7
:1001E000C9DBDF506E0A01E17FD31E0A01E192D123
:1001F000200A01E18FD13F0A01E149D11A0A01E148
:1002000046D10D0A01E143D1200A01E140D13A0A69
:1002100001E13DD1200A01E13AD1260A01E135D1BF
:100220000D0A01E132D11A0A01E1D9D0200A4AE0CF
:10023000300A1FE0460A0EE0250A01E083D3D950B8
:10024000F90FE96EFF0EDA20EA6E010EEE5E000E87
:10025000EE5AEE5AA0EC05F0250EE66E95DB03E1B2
:10026000151C01E169D39CEC05F001E26BD3DB2A9C
:1002700069D3080EDB6A040EDB50010806E2040EA7
:10028000DB0464EC05F0DB508BDB080EDB5009E08F
:10029000030EDB50010B05E172DB01E04DD3080ECC
:1002A000DB6A64DBEFCFDFFF14EC06F003E1151C23
:1002B00001E142D39CEC05F001E3DB2A60DB01E1C4
:1002C00041D33AD3070EDB5002080FE1E0EC05F012
:1002D000030EA7EC05F00E0EEECFDBFF0F0EEECFF8
:1002E000DBFF100EEECFDBFF20D0F70EDBCF17F0D9
:1002F000F80EDBCF18F0020E175E000E185AF70E3C
:1003000017C0DBFFF80E18C0DBFF17C0E9FF18C0ED
:10031000EAFF97EC05F0166A0E0E14C0DBFF0F0E15
:1003200015C0DBFF100E16C0DBFF0E0EDBCFE6FFA5
:100330000F0EDBCFE6FF100EDBCFE6FF32EC0FF047
:10034000E552E552E552130E05C0DBFF140E06C060
:10035000DBFF060EDB5005E0130EDBEC05F001E2DF
:100360006ADBFFEC05F002E2130E37DBC2EC05F0AE
:1003700006E0040EDBEC05F002E2050E2EDB030EB8
:10038000DBB005D0FCDA01E0D7D2080EDB6A090E3B
:10039000DB6A0E0EDBCFF6FF0F0EDBCFF7FF100E82
:1003A000DBCFF8FF0800F550DF6EDF5014E005ECFE
:1003B00006F011E214EC06F003E1151C01E1BCD2D9
:1003C000BBDB01E3DB2A090EDB2AD9500E0FE96EF5
:1003D000000ECBDBE7D7D3DA01E1B4D2ADD2C6DA77
:1003E000110EEECFDBFF120EEDCFDBFF110EDBCFD8
:1003F000E6FF120EDBCFE6FF24EC0FF0E552E552EC
:10040000130EF3CFDBFF140EF4CFDBFF060EDB5031
:1004100004E0130ED0DB01E20EDBFFEC05F002E29C
:10042000130EDBDAAFDB05E0040EC5DB02E2050EDE
:10043000D4DA030EDBB005D0A2DA01E07DD2080EDB
:10044000DB6A090EDB6A110EDBCFE9FF120EDBCF90
:10045000EAFFEFCFDFFFDF5014E0D7DB12E2E4DB8F
:1004600003E1151C01E168D267DB01E3DB2A090E19
:10047000DB2A110EDB2ADBCFE9FF120EE8E3DB2AD1
:10048000E6D77DDA01E15ED257D2030EDB8E070E8E
:10049000DB0410E195DB040E5ADB0A0EEECFDBFF26
:1004A0000B0EEECFDBFF0C0EEECFDBFF0D0EEECF13
:1004B000DBFF6CD0070EDB5003082CE1030EDBAE34
:1004C0000DD0B2DA020E76DAEFCF14F0156A166AA2
:1004D000176A14AE39D01568166835D0F70EDBCF21
:1004E00015F0F80EDBCF16F0020E155E000E165A50
:1004F000F70E15C0DBFFF80E16C0DBFF15C0E9FFD5
:1005000016C0EAFFEFCF14F00A0E14C0DBFF0B0E8B
:10051000DB6A38D0070EDB50020809E1030EDBAEC0
:1005200004D059DB16AE10D00ED055DB0DD0030E23
:10053000DBAE12D079DA020E3DDAF9DA166A176A02
:1005400015AE02D016681768E2DA0C0E16C0DBFF93
:100550000D0E17C0DBFF1AD0F70EDBCF16F0F80E2A
:10056000DBCF17F0020E165E000E175AF70E16C0FC
:10057000DBFFF80E17C0DBFF16C0E9FF17C0EAFF6C
:10058000D6DAC5DA0C0EDB6A0D0EDB6A060EDB501E
:1005900005E1010EF36E050EF3CFDBFF150EDB6AEE
:1005A000160EDB6AD950370F146E000EDA20156E66
:1005B000390E14C0DBFF3A0E15C0DBFF380EDB6AC4
:1005C000080EDB6A0A0EAEDADF50780A12E0200A63
:1005D00010E0280A0CE0200A0AE03F0A06E00D0AB3
:1005E00002E0200A08E1020E05D0080E03D0080E32
:1005F000DF26100E97DA030EDBBE02D0DB92DB940F
:10060000DB50800B24E08ADAD890030EEB50000A0E
:1006100008E6000EEE5C000EEE58000EEE58000EDE
:10062000EE5815E213DA09680A680B680C68ECECFE
:100630000EF00A0E00C0DBFF0B0E01C0DBFF0C0E3C
:1006400002C0DBFF0D0E03C0DBFF2D0E08D0030E32
:10065000DBA202D02B0E03D0DBA408D0200EF36E59
:10066000170EF3CFDBFF150EDB2A02D0170EDB6A65
:10067000050EDB5003E1B7D901E189D0EC0E146E11
:100680001F0E156E000E166E070EDBCF17F0186AE0
:10069000196A1A6A17C009F018C00AF019C00BF0DD
:1006A0001AC00CF0D3D97DEC0FF014500024F36E77
:1006B00015500120F46E16500220F86EF4CFF7FFAB
:1006C000F3CFF6FF0800090EF5CFDBFF580EDF5C15
:1006D0000FE1610EF36E090E7BD90AE3200E146E52
:1006E000090EDBCFE7FF1450E75E090EE7CFDBFF13
:1006F000070EDBCF14F0156A166A176A0FDA14C0FA
:1007000009F015C00AF016C00BF017C00CF0EECFC0
:1007100004F0EECF05F0EECF06F0EFCF07F07DEC62
:100720000FF007C0EDFF06C0EDFF05C0EDFF04C0F0
:10073000EFFF390EDBCFE9FFDB063A0EDBCFEAFF36
:1007400001E2DB06090EDBCFEFFF150EDB2A4BD9EA
:1007500095E1030EDBA61DD06F0EDF5C06E1C1D96B
:1007600018E3150EDB285BDA14D0780EDF5C09E0A5
:10077000580EDF5C06E0620EDF5C03E0420EDF5CD9
:1007800008E1020EF36E160EF3CFDBFF02D0150E5A
:10079000DB6A030EDB50100B0EE0040EDBCF14F00F
:1007A000050EDB50D880145406E2060EDB5003E140
:1007B000040EDB5034DA95D90AE2050EDBCFE7FFF1
:1007C000150EDB50E75E050EE7CFDBFF02D0050E0E
:1007D000DB6A040EDBCF14F0160E45D9D880145412
:1007E00014E2160EDBCFE6FF150EDBCFE6FF040E9C
:1007F000DBCFE6FF050EDB50E552E75CE552D88023
:10080000E754E552D880E7545FD9030EDB50010B63
:100810000BE1080EDB5008E0B2D801E08DD0080EE5
:10082000DB50BED8080EDB6A170EDB5007E088D914
:10083000170EF1D903E1151C01E17ED0160EDB5035
:1008400016E07ED9300EE66E9FD802E1151C74E0EA
:1008500077D9DFCFE6FFAAEC0EF0E552E552E5527C
:10086000F4CF15F00001F31C02E1151C65E0050E44
:10087000DBCF14F0160EDB50D880145409E2050EBD
:10088000DBCFE7FF160EDB50E75E050EE7CFDBFFA1
:10089000300EE66E050ECBD94FE1390EDB2ADBCFE9
:1008A000E9FF3A0E01E3DB2ADBCFEAFF090EEFCFC7
:1008B000DBFFDB500EE044D9090EADD902E1151C77
:1008C0003BE0390EDB2ADBCFE9FF3A0EEDE3DB2A12
:1008D000EBD755D831E1160EDBCFE6FF080EC3D8B3
:1008E000E552E7245DD82ED0070EDB50030A1CE04A
:1008F000010A14E0030A07E07BD9DBCFEEFF020E0A
:10090000DBCFEDFF1FD0F5D8196A17AE02D01868FB
:1009100019682CD8BCD819C0EEFF14D0EAD817BE7D
:10092000186824D8B4D80ED063D9DBCFEFFF0AD033
:100930007BD905E1151C03E1F368F46810D0FCD8FD
:1009400001E3DB2A79D941EF00F0010EDBCF14F08F
:10095000020EDBCF15F014C0F3FF15C0F4FF3B0E01
:10096000E15C02E2E16AE552E16ECBD029D9020EE8
:10097000A7EF05F061D90800F550DF6E1200200ED8
:10098000E66E080E17EF06F0AAEC0EF0E552E552FF
:10099000E552F3CF14F0F4CF15F00001F31C120070
:1009A000146E156AD950010F4DD91450EE2615500A
:1009B000ED221200185E000E195AF70E18C0DBFF68
:1009C000F80E19C0DBFF18C0E9FF19C0EAFF1200DA
:1009D000DBCFF4FFF350F45C1200DB50E76E040E43
:1009E000E7CFDBFF12000A0EDBCF14F00B0EDBCFDC
:1009F00015F00C0EDBCF16F00D0EDBCF17F01450F8
:100A00001510161017101200130EEECFDBFF140E88
:100A1000EDCFDBFF130EDBCF14F0140EDBCF15F0A0
:100A20000001800E15141200F70EDBCF18F0F80E3F
:100A3000DBCF19F01200050EDB50E66ED950130F14
:100A400001D9E552E750EE6EED6A12000A0EDBCFD7
:100A500004F00B0EDBCF05F00C0EDBCF06F00D0E15
:100A6000DBCF07F01200DBCFE6FF150EDBCFE6FF92
:100A7000050EDB50E552E724E552E7241200DB5077
:100A8000CED8010EF36E060EF3CFDBFF1200EE5050
:100A9000EFCFEAFFE96E16C0EEFF17C0EEFF18C0F9
:100AA000EEFF1200D9CFE6FFDACFE6FFE1CFD9FFA4
:100AB000E2CFDAFF1200DFCFE6FFE66AB8EC0FF014
:100AC000E552E552F3501200E76E080EE7CFDBFF68
:100AD0001200EECF14F0EECF15F0EFCF16F0176A3C
:100AE0001200050EDBCF14F0150EDB50D880145425
:100AF0001200010EDBCF16F0020EDBCF17F0186AE2
:100B00001200E552E5CFDAFFE7CFD9FF12000A0E57
:100B100014C0DBFF0B0E15C0DBFF1200D9500A0F0B
:100B200022EF06F0F36E070EF3CFDBFF1200EECFDD
:100B300014F0EFCF15F01200010EDB2A020E1200A6
:100B4000FC0EDBCFE6FFFD0EDBCFE6FF1200145EEE
:100B5000000E155AF70E14C0DBFFF80E15C0DBFFB0
:100B600014C0E9FF15C0EAFF1200DA20EA6EEF2A8E
:100B7000EECFF6FF000EEF22EECFF7FFEF22EECF23
:100B8000F8FF1200040EDBCFE6FF130EDB50E55238
:100B9000E75C9ADFDB5004DF060EDB501200090E23
:100BA000DB500A0DF350DF24D00FE76E090EE7CFBC
:100BB000DBFFBAEF04F0DB50F36E050EE8EF04F054
:100BC000F70EDBCF14F0F80EDBCF15F01200DFCFFD
:100BD000E6FFC4EF04F028DF030EECDE69EF05F05A
:100BE00016EC00F0E552E552E552E552000912001C
:100BF000BDDEEE50EFCFEAFFE96E010E1200130EDC
:100C0000DB50F36E040EE8EF04F0040EDB50F36EDD
:100C1000090EE8EF04F0DBCFE6FFC4EF04F0E76E67
:100C2000050EE7CFDBFF12008BDFE7EF05F0DBCF30
:100C3000E6FF86DFF0EF05F0D950F90FE96EFF0E01
:0E0C4000B5EF05F0E96E000EDA20EA6E120044
:020C4E00D9CFFC
:100C5000E6FFE1CFD9FF93949386A36AA46A3F0E7F
:100C60006F1480096F6EE00E6E148008FCE1FE0EBA
:100C7000DB50706EFD0EDB50716EFC0EDB50726E41
:100C8000040E606E0F01506B016B006B056B046B03
:100C9000096B086B0D6B0C6B116B106B156B146B88
:100CA0001B69070E1A6F080E196F186B1F6B1E6BEE
:100CB0001D6F1C6B200E736EA5681F0E6F146F6E78
:100CC000E00E6E14FDE1030EA36E180EA46E0F016C
:100CD000426B416B456B406B4087000EE552E7CF9E
:100CE000D9FF1200D9CFE6FFE1CFD9FFE652A450D9
:100CF000A3145EE06F50DF6EA450010B08E0A35018
:100D0000010B05E0A490F00E6F140C090AD0A4505A
:100D1000020B0AE0A350020B07E0A492F00E6F143E
:100D20000A096F6E4AD842D0A450040B0EE0A350BB
:100D3000040B0BE0F00E6F1408096F6E80D80009E9
:100D400002E0A39433D0A49431D0A450080B0EE059
:100D5000A350080B0BE0F00E6F1406096F6E6FD8EE
:100D6000000902E0A39622D0A49620D0A450100B34
:100D70000EE0A350100B0BE0F00E6F1404096F6E21
:100D80005ED8000902E0A39811D0A4980FD0A45017
:100D9000200B05E0A350200B02E0A49A07D0A4503A
:100DA000400B04E0A350400B01E0A49CDF506F6EA9
:100DB000E552E552E7CFD9FF1200D9CFE6FFE1CFE8
:100DC000D9FFE6520001DB2B040EE76EDB19E8AE1B
:100DD00002D0E73402D0E750DB5D01E3DB6BDF6A72
:100DE0000E0EDF5C26E2DF50EA6A600FE96E0F0E3E
:100DF000EA22EF50E66EDBC0E9FFEA6AE9BEEA6884
:100E00000E0EEA02F3CFEAFFE902F3CFE9FFF45056
:100E1000EA26600EE926000EEA22DF500F01E924DF
:100E2000E96E000EEA20EA6EE552E750EF6EDF2A27
:100E3000D7D7609EE552E552E7CFD9FF1200D9CF50
:100E4000E6FFE1CFD9FFE6520001DC51DD5D39E07C
:100E5000DC2B040EE76EDC19E8AE02D0E73402D0DA
:100E6000E750DC5D01E3DC6BDF6A0E0EDF5C26E23F
:100E7000DCC0E9FFEA6AE9BEEA680E0EEA02F3CFD7
:100E8000EAFFE902F3CFE9FFF450EA26980EE926DB
:100E9000000EEA22DF500F01E924E96E000EEA207D
:100EA000EA6EEF50E66EDF50EA6A600FE96E0F0EF1
:100EB000EA22E552E750EF6EDF2AD7D76086000EB0
:100EC00001D0010EE552E552E7CFD9FF1200D9CF8C
:100ED000E6FFE1CFD9FF020EE1260001DC05DD5D72
:100EE00005E0030EDD5D04E1DC5102E1010EC9D134
:100EF000030EE76EDD19E8AE02D0E73402D0E7500A
:100F0000DD5D02E3DF6A02D0DD29DF6EFC0EDB501F
:100F1000080805E2080EF36EFC0EF3CFDBFFDF508E
:100F20000E0DF3CFE9FFF4CFEAFF980EE926000E8D
:100F3000EA22050EE926000EEA22FC0EDBCFEFFFC7
:100F4000D950F00FE96EFF0EDA20EA6E0E0EE92698
:100F5000000EEA22EF50020B45E1DF500E0DF3CFF9
:100F6000E9FFF4CFEAFF980EE926000EEA22050E0B
:100F7000E926000EEA22EF9C010EDB6AFC0EDB5034
:100F8000F36E010EDBCFF4FFF350F45C3AE2D9507C
:100F9000F40F166EFF0EDA20176E010EDB500F01F4
:100FA0001624E96E000E1720EA6EEF50E66EDF5051
:100FB0000E0DF3CFE9FFF4CFEAFF980EE926000EFD
:100FC000EA22060EE926000EEA22010EDB50E92491
:100FD000E96E000EEA20EA6EE552E750EF6E010E70
:100FE000DB2ACCD7DF500E0DF3CFE9FFF4CFEAFFB9
:100FF000980EE926000EEA22050EE926000EEA22E6
:10100000EF8CD950F00FE96EFF0EDA20EA6E0E0E6B
:10101000E926000EEA22EF50010B01E1B8D0F00EF4
:10102000DBCF14F0F10EF20EF30E1450E66EDF502B
:101030000E0DF3CFE9FFF4CFEAFF980EE926000E7C
:10104000EA22040EE926000EEA22E552E750EF6E8E
:10105000F00EDBCF14F0F10EDBCF15F0F20EDBCF8C
:1010600016F0F30EDBCF17F0080ED89017321632B9
:1010700015321432E806F9E11450E66EDF500E0D19
:10108000F3CFE9FFF4CFEAFF980EE926000EEA223B
:10109000030EE926000EEA22E552E750EF6EF00E4D
:1010A000DBCF1CF0F10EDBCF1DF0F20EDBCF1EF01C
:1010B000F30EDBCF1FF00D0ED8901F321E321D3203
:1010C0001C32E806F9E1E00E216A226A236AE85040
:1010D0001C1621501D1622501E1623501F16F00EEE
:1010E000F10EF20EDBCF1AF0F30E1AC014F000016D
:1010F000166A176A030E1416156A166A176A1450D0
:101100001C10E66EDF500E0DF3CFE9FFF4CFEAFFBF
:10111000980EE926000EEA22020EE926000EEA22C7
:10112000E552E750EF6EF00EDBCF14F0F10EDBCF9F
:1011300015F0F20EDBCF16F0F30EDBCF17F0150E25
:10114000D8901732163215321432E806F9E11450ED
:10115000E66EDF500E0DF3CFE9FFF4CFEAFF980EF5
:10116000E926000EEA22EE52E552E750EF6EDF501C
:101170000E0DF3CFE9FFF4CFEAFF980EE926000E3B
:10118000EA22020EE926000EEA22EF865CD0F00E7B
:10119000DBCF14F0F10EDBCF15F0F20EDBCF16F043
:1011A000F30EDBCF17F0050E1F0B07E0D8901436B7
:1011B000153616361736E806F9E11450E66EDF509C
:1011C0000E0DF3CFE9FFF4CFEAFF980EE926000EEB
:1011D000EA22020EE926000EEA22E552E750EF6EFF
:1011E000F00EDBCF14F0F10EDBCF15F0F20EDBCFFB
:1011F00016F0F30EDBCF17F0030ED890173216322D
:1012000015321432E806F9E11450E66EDF500E0D87
:10121000F3CFE9FFF4CFEAFF980EE926000EEA22A9
:10122000EE52E552E750EF6EDF500E0DF3CFE9FFBF
:10123000F4CFEAFF980EE926000EEA22020EE92614
:10124000000EEA22EF96FD0EDB50030BE66EDF5038
:101250000E0DF3CFE9FFF4CFEAFF980EE926000E5A
:10126000EA22E552E750EF6EDFCFDDF0A3B402D003
:10127000A38406D0A3B602D0A38602D0A3A8A388D5
:10128000000E146E020EE15C02E2E16AE552E16ECC
:101290001450E552E7CFD9FF12000001DA51DB5DAF
:1012A00001E0010C000CD9CFE6FFE1CFD9FF110E10
:1012B000E126030E0001E76EDA19E8AE02D0E7344A
:1012C00002D0E750DA5D03E30F0EDB6A05D0DA29BE
:1012D000E76E0F0EE7CFDBFFDB500E0DF3CFE9FF1C
:1012E000F4CFEAFF600EE926000EEA22050EE92699
:1012F000000EEA22EF500F0BE76E0C0EE7CFDBFF7C
:101300000F0EDB500E0DF3CFE9FFF4CFEAFF600EB6
:10131000E926000EEA22EF50080B03E00E0EDB82F6
:1013200036D00E0EDB92100EDB6A0C0EDB50F36E25
:10133000100EDBCFF4FFF350F45C29E20F0EDB500C
:101340000E0DF3CFE9FFF4CFEAFF600EE926000EA1
:10135000EA22060EE926000EEA22100EDB500F01EB
:10136000E924E96E000EEA20EA6EEF50E66ED950ED
:10137000040F146E100EDB501424E96E000EDA20F8
:10138000EA6EE552E750EF6E100EDB2ACED7F00E74
:101390006F146F6E0F0EDB500E0DF3CFE9FFF4CF1D
:1013A000EAFF600EE926000EEA22EE52EF50146EBC
:1013B000156A030ED89014361536E804FBE1000ECA
:1013C00014C0DFFF010E15C0DBFF020EDB6A030E47
:1013D000DB6A0F0EDB500E0DF3CFE9FFF4CFEAFF0F
:1013E000600EE926000EEA22020EE926000EEA222D
:1013F000EF50E00BE838E840156A166A176AE850C3
:10140000DE121550DE121650DE121750DD12DD52BC
:10141000DD520F0EDB500E0DF3CFE9FFF4CFEAFFE4
:10142000600EE926000EEA22020EE926000EEA22EC
:10143000EF50080B01E19FD00E0EDB80D9CFE9FF02
:10144000DACFEAFFEECF14F0EECF15F0EECF16F0C4
:10145000EFCF17F0020E1F0B07E0D89014361536A9
:1014600016361736E806F9E10F0EDB500E0DF3CFF6
:10147000E9FFF4CFEAFF600EE926000EEA22020E31
:10148000E926000EEA22EF50030B196A1A6A1B6A5A
:10149000E8501412195015121A5016121B50171238
:1014A00014C0DFFF010E15C0DBFF020E16C0DBFF0C
:1014B000030E17C0DBFFD9CFE9FFDACFEAFFEECF8B
:1014C00014F0EECF15F0EECF16F0EFCF17F0100EB0
:1014D0001F0B07E0D8901436153616361736E80677
:1014E000F9E114C0DFFF010E15C0DBFF020E16C0CC
:1014F000DBFF030E17C0DBFF0F0EDB500E0DF3CF2B
:10150000E9FFF4CFEAFF600EE926000EEA22030E9F
:10151000E926000EEA22EFCF14F014C015F0146A89
:10152000166A176A1450DE121550DE121650DE12BB
:101530001750DD12DD52DD520F0EDB500E0DF3CFD2
:10154000E9FFF4CFEAFF600EE926000EEA22040E5E
:10155000E926000EEA22EFCF14F0156A166A176A20
:101560001450DE121550DE121650DE121750DD1226
:10157000DD52DD5202D00E0EDB900F0EDBCFDAF023
:10158000D9CFE9FFDACFEAFFEECF14F0EECF15F0B6
:10159000EECF16F0EECF17F0EECF18F0EECF19F039
:1015A000EECF1AF0EECF1BF0EECF1CF0EECF1DF019
:1015B000EECF1EF0EECF1FF0EECF20F0EECF21F0F9
:1015C000EFCF22F0D9CFE9FFDACFEAFFED50ED50AF
:1015D00022C0EDFF21C0EDFF20C0EDFF1FC0EDFFD9
:1015E0001EC0EDFF1DC0EDFF1CC0EDFF1BC0EDFFD9
:1015F0001AC0EDFF19C0EDFF18C0EDFF17C0EDFFD9
:1016000016C0EDFF15C0EDFF14C0EFFF110EE15C39
:1016100002E2E16AE552E16EE552E7CFD9FF12003E
:10162000D9CFE6FFE1CFD9FF1F0E6F14146EFE0E67
:10163000DB50E00B14106F6EE00E6E14146EFE0E95
:10164000DB50E00B145CF8E1E552E7CFD9FF120064
:101650000F9E08D00F9E07AE05D0066C071EE86AE5
:1016600007220F8E07C001F006C000F0136A126A4D
:101670008E0E026E036AC6EF0BF00F6A02EC0CF0DE
:101680001AEC0CF00FB6AAEF0BF00FA205D00FB8B2
:10169000AAEF0BF0B1EF0BF00FAA05D00FB0AAEF35
:1016A0000BF0B1EF0BF00FB002D00FA802D0BDEFDE
:1016B0000BF0036A0D500824026EE86A03227E0EC6
:1016C000025EE86A035A126A136A006A016A0C50E1
:1016D0000702F4CF01F0F3CF00F00B500702F350F4
:1016E0001326F4500022000E01220C500602F35083
:1016F0001326F4500022000E01220A500702F35074
:101700001226F4501322000E002201220B50060272
:10171000F3501226F4501322000E002201220C5026
:101720000502F3501226F4501322000E002201226B
:101730000A500602F4501226000E13220022012243
:101740000B500502F4501226000E13220022012233
:10175000C6EF0BF07F0E086EFF0E076E066E056E6D
:1017600012007F0E0FBEFF0E086E02D07F0E086EB5
:10177000800E076E066A056AF3D70FAE04D0800E9E
:10178000086E076AF7D7086A076AF4D70150001095
:1017900013101210F8E003BEF0D701BE0CD00250B7
:1017A0000310EBE0D89012361336003601360206ED
:1017B000D8A00306F2D70350D4E10228D2E012AE3B
:1017C00011D07F0E121402E113A00CD0132AE86A84
:1017D0000022012207E3D880013200321332022AAC
:1017E0000228BFE00250C9E013C005F000C006F0B7
:1017F0000134076E0230086E0732089E0FBE088E55
:10180000B0EF0BF00736083602E30F840F7E06E1D7
:101810000F80086A076A066A056A1200082803E052
:10182000D88007321200D890073202E10F821200EE
:101830000F8612000C360D3602E30F8C0F7E06E188
:101840000F880D6A0C6A0B6A0A6A12000D2803E001
:10185000D8800C321200D8900C32EAE10F8A1200C4
:1018600007C013F006C012F006500B02F4CF05F0CB
:10187000F3CF04F007500C02F4CF07F0F3CF06F0DB
:101880000B02F3500526F4500622E86A0722125094
:101890000C02F3500526F4500622E86A07220CAE2B
:1018A00056EF0CF01250065E1350075A13AE000CA0
:0A18B0000B50065E0C50075A000CA6
:0618BA00D9CFE6FFE1CFEB
:1018C000D9FF490EE126330EE66EE66A2C0EE66E6F
:1018D00065EC0EF0E552E552E552A380020EE66E8D
:1018E000900EE66E3F0EE66E27EC06F0E552E552EE
:1018F000E55250EC0DF04DEC09F00009FCE00F0E44
:10190000E12653EC09F0EECF14F0EECF15F0EECF58
:1019100016F0EECF17F0EECF18F0EECF19F0EECFB5
:101920001AF0EECF1BF0EECF1CF0EECF1DF0EECF95
:101930001EF0EECF1FF0EECF20F0EECF21F0EECF75
:1019400022F0236E0F0EE15E235014C0DFFF010E64
:1019500015C0DBFF020E16C0DBFF030E17C0DBFF56
:10196000040E18C0DBFF050E19C0DBFF060E1AC0FF
:10197000DBFF070E1BC0DBFF080E1CC0DBFF090EE0
:101980001DC0DBFF0A0E1EC0DBFF0B0E1FC0DBFFFE
:101990000C0E20C0DBFF0D0E21C0DBFF0E0E22C09F
:1019A000DBFFD9CFE9FFDACFEAFFF30EEE18A3E1B0
:1019B000050EEE18A0E1EE509EE1EE509CE1080EFF
:1019C000DB50E76E0F0EE7CFDBFF090EDB50E76E53
:1019D000100EE7CFDBFFDBCFE6FF0F0EDB50000E74
:1019E000F350E552E724E66ED950110FE96EDACFD5
:1019F000EAFFE552E750EE6EED6A110EDBCF06F01E
:101A0000120EDBCF07F02AEC0BF005C014F006C075
:101A100015F007C016F008C017F0CD0E0A6ECC0EF8
:101A20000B6E0C6E3D0E0D6E3DEC0BF0130E05C0F3
:101A3000DBFF140E06C0DBFF150E07C0DBFF160E22
:101A400008C0DBFFD950130FE96EDACFEAFFEECF03
:101A5000E6FFEECFE6FFEECFE6FFEFCFE6FFFD0EAF
:101A6000146E1F0E156E166A14C0E6FFE66E16C0E1
:101A7000E6FFD950170FE66E000EDA20E66EC0ECD6
:101A80000DF0176E090EE15E1750D950170FE66E74
:101A9000000EDA20E66E57EC0FF0E552E5522BD738
:101AA000D08EF28EF29C1200F250800B800A01E080
:101AB000010E146E156A14BE156814C0F3FF15C02C
:101AC000F4FF1200F2BC04D0EFDFF350F41002E098
:101AD000F36A02D0010EF36EF46A1200DACFE4FF6B
:101AE000E2CFDAFFE9CFE4FFEACFE4FFF6CFE4FF8D
:101AF000F7CFE4FFF5CFE4FFF3CFE4FFF4CFE4FF4B
:101B0000FACFE4FF00EE00F0140EE80403E3EECF9A
:101B1000E4FFFBD700EE14F0100EE80403E3EECF71
:101B2000E4FFFBD7E65272EC06F0E55200EE23F03C
:101B3000100EE80403E3E5CFEDFFFBD700EE13F052
:101B4000140EE80403E3E5CFEDFFFBD7E5CFFAFF82
:101B5000E5CFF4FFE5CFF3FFE5CFF5FFE5CFF7FFE6
:101B6000E5CFF6FFE5CFEAFFE5CFE9FFE5CFDAFF06
:101B70001100DACFE4FFE652E552E5CFDAFF1100BB
:101B8000D9CFE6FFDACFE6FFE1CFD9FFE2CFDAFF28
:101B9000E652E652E652E652D950F90F146EFF0EA5
:101BA000DA20156E020E14C0DBFF030E15C0DBFF3A
:101BB000020EDBCFE6FF030EDBCFE6FFF90EDBCF35
:101BC000E6FFFA0EDBCFE6FFFB0EDBCFE6FFD950D8
:101BD000FC0FE66EFF0EDA20E66E2CEC00F0146EC1
:101BE000070EE15C02E2E16AE552E16E1450F3CFC8
:101BF000DEFFF4CFDDFFFC0EDBCFE9FFFD0EDBCF18
:101C0000EAFFEF6ADECF14F0DDCF15F014C0F3FF6A
:101C100015C0F4FF040EE15C02E2E16AE552E16EF8
:0C1C2000E552E5CFDAFFE7CFD9FF120054
:041C2C001E0EF66E24
:101C3000000EF76E000EF86E00010900F550D56F2A
:101C40000900F550D66F03E1D56701D03DD00900FA
:101C5000F550D06F0900F550D16F0900F550D26FE3
:101C600009000900F550E96E0900F550EA6E090017
:101C700009000900F550D36F0900F550D46F090031
:101C80000900F6CFD7F0F7CFD8F0F8CFD9F0D0C011
:101C9000F6FFD1C0F7FFD2C0F8FF0001D35302E135
:101CA000D45307E00900F550EE6ED307F8E2D407ED
:101CB000F9D7D7C0F6FFD8C0F7FFD9C0F8FF0001A9
:0A1CC000D507000ED65BBFD7120057
:061CCA00D9CFE6FFDACFDE
:101CD000E6FFE1CFD9FFE2CFDAFFAC6AAB6AFD0ED7
:101CE000DBB0AC88DBA202D0AC8CAB8CDBB4AC8EAE
:101CF000DBA602D0AB8801D0AB8ADBB8AC849E985F
:101D0000DBBAAB86DBAC02D09D8A01D09D9A9E9A4D
:101D1000DBAE02D09D8801D09D98FB0EDB50AF6EEC
:101D2000FB0EFC0EDBCF15F015C014F0156A145035
:101D3000B06EAC8AAB8E949C948EAC50100B04E0C9
:101D4000AC50800B01E1948CE552E5CFDAFFE7CF90
:041D5000D9FF1200A5
:0C1D5400D9CFE6FFDACFE6FFE1CFD9FFE0
:101D6000E2CFDAFFFB0EDBCF14F0FC0EDBCF15F079
:101D70000001800E15141AE1FB0EDBCFE9FFFC0E0B
:101D8000DBCFEAFFEECFF3FFEDCFF4FFEE2A000E3C
:101D9000EF22F3CFE9FFF4CFEAFFFD0EDBCFEFFF39
:101DA000EF50156AF36E15C0F4FF10D0FB0EDB5038
:101DB000FE0806E1FD0EDBCFE6FFE8EC0FF005D0F4
:101DC000FD0EDBCFE6FF03EC00F0E552E552E5CF78
:081DD000DAFFE7CFD9FF120092
:081DD80004500902F3CF00F0F2
:101DE000F4CF01F00A02F3500126000EF420026E37
:101DF00004500B02F3500226000EF420036E045030
:101E00000C02F350032605500902F3500126F4504A
:101E10000222000E032205500A02F3500226F4505B
:101E2000032205500B02F350032606500902F3501B
:101E30000226F450032206500A02F35003260750EC
:081E40000902F3500326120011
:081E4800FE0EE3CFE9FFFF0EDF
:101E5000E3CFEAFFF36AF46AEE5203E0F34AF42AAE
:101E6000FBD71200FF0EE3CFF8FFE552FF0EE3CFE2
:101E7000F7FFE552FF0EE3CFF6FFE552E66AE66AAA
:101E8000E66A0900F55209E0FD0EE32A05E1FE0EBF
:101E9000E32A02E1FF0EE32AF4D7FD0EE3CF05F0BB
:0E1EA000FE0EE3CF06F0FF0EE3CF07F01200B8
:021EAE00D9CF8A
:101EB000E6FFDACFE6FFE1CFD9FFE2CFDAFFACA24F
:101EC000FED7FC0EDBCFE9FFFD0EDBCFEAFFEF50C4
:101ED000E66EA1EC0FF0E552FC0EDBCFE9FFDB2A4A
:101EE000FD0EDBCFEAFF01E3DB2AEF50E8E1E5522C
:0A1EF000E5CFDAFFE7CFD9FF1200BB
:061EFA00036A026A016A9E
:101F0000006A200EE76ED89004360536063607368E
:101F100000360136023603360950005C0A5001587B
:101F20000B5002580C50035809E30950005E0A5048
:101F3000015A0B50025A0C50035A042AE72EE4D7D8
:021F400012008D
:0E1F4200D9CFE6FFDACFE6FFE1CFD9FFE2CF3D
:101F5000DAFFACAC04D0AC900001DEB3AC80FD0E77
:101F6000DB50AD6EE552E5CFDAFFE7CFD9FF1200C7
:101F7000F36AF46AFF0EE124E96EFF0EE220EA6ED6
:101F8000ED6607D02F0EEF6404D03A0EEF6001D05B
:041F9000F32A12001E
:0C1F9400000EF36E00EE00F0030E01D80A
:101FA0001200EA6002D0EE6AFCD7F350E96012003A
:041FB000EE6AFCD702
:0C1FB40012EE00F022EE00F0F86A0F9C24
:101FC00016EC0EF007EC00F05DEC0CF0FBD7120005
:101FD000FF0EE350ACBA04D0AF6AAB8EAC8A949CCF
:0C1FE000ACA2FED7AD6EF36EF46A1200E6
:041FEC00303132332B
:0D1FF0003435363738396162636465660048
:031FFD00426174CA
:082000003A20256620562E004F
:00000001FF
