:020000040000FA
:0600000047EF06F01200BC
:020006001200E6
:0600080074EF05F0120088
:02000E000000F0
:020010000000EE
:060018009AEF05F0120052
:02001E000100DF
:0C0020000E000000DA00000004000000E8
:04002C00F8DA9394D7
:100030009386A36AA46A3F0E6F1480096F6EE00E68
:100040006E148008FCE1FE0EDB50706EFD0EDB507E
:10005000716EFC0EDB50726E040E606E0F01506B01
:10006000016BBE0E006F056B046B096B086B0D6BAB
:100070000C6B116B106B156B146B1B69070E1A6FF1
:10008000080E196F186B1F6B1E6B1D6F1C6B200EFB
:10009000736EA5681F0E6F146F6EE00E6E14FDE197
:1000A000030EA36E180EA46E0F01426B416B456BDD
:1000B000406B4087000EB8D2B2DAE652818AA45073
:1000C000A31459E06F50DF6EA450010B08E0A35059
:1000D000010B05E0A490F00E6F140C090AD0A45097
:1000E000020B0AE0A350020B07E0A492F00E6F147B
:1000F0000A096F6E42D83DD0A450040B0CE0A35007
:10010000040B09E0F00E6F140809C1DA02E0A394B1
:1001100030D0A4942ED0A450080B0CE0A350080BB0
:1001200009E0F00E6F140609B2DA02E0A39621D0BE
:10013000A4961FD0A450100B0CE0A350100B09E0A4
:10014000F00E6F140409A3DA02E0A39812D0A49869
:1001500010D0A450200B06E0A350200B03E0A49A7B
:10016000818A07D0A450400B04E0A350400B01E06B
:10017000A49CDF506F6EE55257D251DAE65200016F
:10018000DB2B040EE76EDB19E8AE02D0E73402D0B9
:10019000E750DB5D01E3DB6BDF6A0E0EDF5C13E231
:1001A0006FDAEF50E66EDBC0E9FFEA6AE9BEEA68A3
:1001B0005DDA600EE926000EEA22DF500F0142DA16
:1001C0009FDADF2AEAD7609EE5522ED228DAE6527D
:1001D0000001DC51DD5D26E0DC2B040EE76EDC194E
:1001E000E8AE02D0E73402D0E750DC5D01E3DC6B1F
:1001F000DF6A0E0EDF5C13E2DCC0E9FFEA6AE9BEEB
:10020000EA6834DA980EE926000EEA22DF500F0180
:1002100019DAEF50E66E34DA73DADF2AEAD760864D
:10022000000E01D0010EE552FFD1F9D9020EE126F0
:100230000001DC05DD5D05E0030EDD5D04E1DC5160
:1002400002E1010EB3D0030EE76EDD19E8AE02D075
:10025000E73402D0E750DD5D02E3DF6A02D0DD293A
:10026000DF6EFC0EDB50080805E2080EF36EFC0E94
:10027000F3CFDBFF25DAFC0EDBCFEFFF29DA020B31
:1002800026E11EDAEF9C010EDB6AFC0EDB50F36EFA
:10029000010EDBCFF4FFF350F45C1BE2D950F40FF6
:1002A000166EFF0EDA20176E010EDB500F011624BA
:1002B000E96E000E1720EA6EEF5026DA060E1CDA01
:1002C000010EDB50BFD91CDA010EDB2ADED7F8D9CC
:1002D000EF8CFED9010B4BE0F00EDBCF14F0F10EEA
:1002E000F20EF30E145010DA040E80D9080EB0D9B5
:1002F000FEE1145009DA030EFFD902DAF00EDBCF6B
:100300001CF0F10EDBCF1DF0F20EDBCF1EF0F30E72
:10031000DBCF1FF00D0ED8901F321E321D321C3263
:10032000E806F9E1E00E216A226A236AE8501C1609
:1003300021501D1622501E1623501F16F00EF10ECE
:10034000F20EDBCF1AF0F30E1AC014F00001166A99
:10035000176A030E1416156A166A176A14501C10D1
:10036000C0D9150E75D9FEE196D9EF860DD09BD96F
:10037000050E1F0B02E073D9FEE11450B2D9030E33
:1003800067D9FEE188D9EF96FD0EDB50030BBCD98F
:10039000B7D9DFCFDDF0A3B402D0A38406D0A3B6D3
:1003A00002D0A38602D0A3A8A388000E146E020E6A
:1003B000E15C02E2E16AE552E16E145035D10001E0
:1003C000DA51DB5D01E0010C000C29D9110EE126A8
:1003D000030E0001E76EDA19E8AE02D0E73402D06E
:1003E000E750DA5D03E30F0EDB6A05D0DA29E76E2A
:1003F0000F0EE7CFDBFFEFD8050E1AD90F0BE76E14
:100400000C0EE7CFDBFF83D9EF50080B03E00E0E95
:10041000DB8224D00E0EDB92100EDB6A0C0EDB505A
:10042000F36E100EDBCFF4FFF350F45C17E26FD9DC
:10043000060E62D9100EDB500F0104D9EF50E66EA4
:10044000D950040F146E100EDB501424E96E000E08
:10045000DA20EA6E55D9100EDB2AE0D7F00E6F14C1
:100460006F6E55D9EE52EF50146E156A030ED89088
:1004700014361536E804FBE1000E37D9DB6A030EAB
:10048000DB6A22D9E00BE838E840156A166A176A79
:10049000E850BBD819D9080B38E00E0EDB80AAD87B
:1004A000EFCF17F0020E1F0B02E0D9D8FEE10CD9F6
:1004B000030B196A1A6A1B6AE850141219501512B4
:1004C0001A5016121B501712B6D894D8EFCF17F047
:1004D000100E1F0B02E0C3D8FEE1ADD818D9030EF1
:1004E0000BD9EFCF14F014C015F0146A166A176A0E
:1004F00014508BD80CD9040EFFD8EFCF14F0156A26
:10050000166A176A145081D802D00E0EDB900F0EB7
:10051000DBCFDAF06FD8EECF17F0EECF18F0EECFDA
:1005200019F0EECF1AF0EECF1BF0EECF1CF0EECFAD
:100530001DF0EECF1EF0EECF1FF0EECF20F0EECF8D
:1005400021F0EFCF22F0D9CFE9FFDACFEAFFED506B
:10055000ED5022C0EDFF21C0EDFF20C0EDFF1FC018
:10056000EDFF1EC0EDFF1DC0EDFF1CC0EDFF1BC069
:10057000EDFF1AC0EDFF19C0EDFF18C0EDFF17C069
:10058000EDFF16C0EDFF15C0EDFF14C0EFFF110E1B
:10059000E15C02E2E16AE552E16E46D040D81F0E0E
:1005A0006F14146EFE0EDB50E00B14106F6EE00E35
:1005B0006E14146EFE0EDB50E00B145CF8E134D0C8
:1005C000DF500E0DF3CFE9FFF4CFEAFF980EE926D6
:1005D000000EEA221200DB500E0DF3CFE9FFF4CF3C
:1005E000EAFF600EE926000EEA22120085D888D8BC
:1005F00053EF03F0D9CFE9FFDACFEAFFEECF14F0E3
:10060000EECF15F0EECF16F01200DE121550DE120E
:100610001650DE121750DD12DD52DD521200D9CF16
:10062000E6FFE1CFD9FF1200E552E7CFD9FF120074
:1006300063D8EF50120059D816C0DBFF030E17C065
:10064000DBFF1200E924E96E000EEA20EA6E1200D8
:10065000D8901732163215321432E8061200D890AC
:100660001436153616361736E80612000E0EEA0254
:10067000F3CFEAFFE902F3CFE9FFF450EA261200D4
:10068000DF50EA6A600FE96E0F0EEA2212006F6E09
:100690009DDD00091200145037D8EE5231D890DF9A
:1006A000020E7CEF03F0F00EDBCF14F0F10EDBCF87
:1006B00015F0F20EDBCF16F0F30EDBCF17F01200C1
:1006C0007FDF050E7CEF03F022D8020E18EF03F057
:1006D000D950F00FE96EFF0EDA20EA6E0E0E18EF19
:1006E00003F012D8020EF6EF02F014C0DFFF010E85
:1006F00015C0DBFF020E1200E926000EEA221200EE
:10070000E552E750EF6E1200E66EE0EF02F00F0EDA
:04071000EBEF02F019
:0C0714000F9E08D00F9E07AE05D0066CAB
:10072000071EE86A07220F8E07C001F006C000F01E
:10073000136A126A8E0E026E036A28EF04F00F6AC3
:1007400064EC04F07CEC04F00FB60CEF04F00FA2A4
:1007500005D00FB80CEF04F013EF04F00FAA05D08A
:100760000FB00CEF04F013EF04F00FB002D00FA89D
:1007700002D01FEF04F0036A0D500824026EE86AED
:1007800003227E0E025EE86A035A126A136A006A46
:10079000016A0C500702F4CF01F0F3CF00F00B50C8
:1007A0000702F3501326F4500022000E01220C50D1
:1007B0000602F3501326F4500022000E01220A50C4
:1007C0000702F3501226F4501322000E00220122D9
:1007D0000B500602F3501226F4501322000E002292
:1007E00001220C500502F3501226F4501322000E81
:1007F000002201220A500602F4501226000E132293
:10080000002201220B500502F4501226000E132282
:100810000022012228EF04F07F0E086EFF0E076E03
:10082000066E056E12007F0E0FBEFF0E086E02D020
:100830007F0E086E800E076E066A056AF3D70FAE4C
:1008400004D0800E086E076AF7D7086A076AF4D7E3
:100850000150001013101210F8E003BEF0D701BED3
:100860000CD002500310EBE0D8901236133600364D
:1008700001360206D8A00306F2D70350D4E10228BD
:10088000D2E012AE11D07F0E121402E113A00CD0F0
:10089000132AE86A0022012207E3D88001320032DD
:1008A0001332022A0228BFE00250C9E013C005F04B
:1008B00000C006F00134076E0230086E0732089E51
:1008C0000FBE088E12EF04F00736083602E30F84DD
:1008D0000F7E06E10F80086A076A066A056A120041
:1008E000082803E0D88007321200D890073202E1CE
:1008F0000F8212000F8612000C360D3602E30F8CA9
:100900000F7E06E10F880D6A0C6A0B6A0A6A1200F4
:100910000D2803E0D8800C321200D8900C32EAE1A6
:040920000F8A120028
:0C092400D9CFE6FFE1CFD9FF490EE12654
:1009300093869398939A8A988A9AA3808198819AA9
:10094000020EE66E900EE66E3F0EE66E16EC00F0BE
:10095000E552E552E55256EC05F08188DFEC01F0F6
:100960000009FBE00F0EE126E5EC01F0EECF14F0FC
:10097000EECF15F0EECF16F0EECF17F0EECF18F069
:10098000EECF19F0EECF1AF0EECF1BF0EECF1CF049
:10099000EECF1DF0EECF1EF0EECF1FF0EECF20F029
:1009A000EECF21F0EECF22F0236E0F0EE15E23504A
:1009B00014C0DFFF010E15C0DBFF020E16C0DBFF07
:1009C000030E17C0DBFF040E18C0DBFF050E19C0B5
:1009D000DBFF060E1AC0DBFF070E1BC0DBFF080E95
:1009E0001CC0DBFF090E1DC0DBFF0A0E1EC0DBFFB3
:1009F0000B0E1FC0DBFF0C0E20C0DBFF0D0E21C055
:100A0000DBFF0E0E22C0DBFFD9CFE9FFDACFEAFF12
:100A1000F00EEE18A2E1050EEE189FE1EE509DE1FA
:100A2000EE509BE1080EDB50E76E0F0EE7CFDBFFC9
:100A3000090EDB50E76E100EE7CFDBFFDBCFE6FFE2
:100A40000F0EDB50000EF350E552E724E66ED9504E
:100A5000110FE96EDACFEAFFE552E750EE6EED6A6C
:100A6000110EDBCF06F0120EDBCF07F08CEC03F09B
:100A700005C014F006C015F007C016F008C017F046
:100A8000CD0E0A6ECC0E0B6E0C6E3D0E0D6E9FECF5
:100A900003F0130E05C0DBFF140E06C0DBFF150EBE
:0C0AA00007C0DBFF160E08C0DBFF57D7B5
:040AAC00D08EF28E68
:100AB000F28C1200F250800B800A01E0010E146EDD
:100AC000156A14BE156814C0F3FF15C0F4FF1200B8
:100AD000F2BC04D0EFDFF350F41002E0F36A02D06E
:100AE000010EF36EF46A12004BD800EE00F0140E03
:100AF000E80403E3EECFE4FFFBD700EE14F0100EA2
:100B0000E80403E3EECFE4FFFBD7E6525CEC00F031
:100B1000E55200EE23F0100EE80403E3E5CFEDFF0D
:100B2000FBD700EE13F0140EE80403E3E5CFEDFF6E
:100B3000FBD73BD025D800EE00F0140EE80403E309
:100B4000EECFE4FFFBD700EE14F0100EE80403E351
:100B5000EECFE4FFFBD7E6525CEC00F0E55200EE8E
:100B600023F0100EE80403E3E5CFEDFFFBD700EE22
:100B700013F0140EE80403E3E5CFEDFFFBD715D027
:100B8000DACFE4FFE2CFDAFFE9CFE4FFEACFE4FF18
:100B9000F6CFE4FFF7CFE4FFF5CFE4FFF3CFE4FFB8
:100BA000F4CFE4FFFACFE4FF1200E5CFFAFFE5CF80
:100BB000F4FFE5CFF3FFE5CFF5FFE5CFF7FFE5CF96
:100BC000F6FFE5CFEAFFE5CFE9FFE5CFDAFF110059
:100BD0001E0EF66E000EF76E000EF86E0001090094
:100BE000F550D56F0900F550D66F03E1D56701D0F8
:100BF0003DD00900F550D06F0900F550D16F0900C4
:100C0000F550D26F09000900F550E96E0900F55062
:100C1000EA6E090009000900F550D36F0900F5508C
:100C2000D46F09000900F6CFD7F0F7CFD8F0F8CF8E
:100C3000D9F0D0C0F6FFD1C0F7FFD2C0F8FF000155
:100C4000D35302E1D45307E00900F550EE6ED30709
:100C5000F8E2D407F9D7D7C0F6FFD8C0F7FFD9C05C
:0E0C6000F8FF0001D507000ED65BBFD71200CB
:020C6E00000E76
:100C7000F36E00EE00F0030E01D81200EA6002D01D
:0E0C8000EE6AFCD7F350E9601200EE6AFCD772
:020C8E0012EE64
:100C900000F022EE00F0F86A0F9CE8EC05F003EC9F
:0A0CA00000F092EC04F0FBD7120004
:020000040030CA
:0100010006F8
:010002001FDE
:010003001FDD
:01000500807A
:010006008178
:010008000FE8
:01000900C036
:01000A000FE6
:01000B00E014
:01000C000FE4
:01000D0040B2
:00000001FF
