:020000040000FA
:060000008CEF00F012007D
:020006000000F8
:08000800060EF66E000EF76E05
:10001000000EF86E00010900F550656F0900F550FB
:10002000666F03E1656701D03DD00900F550606F50
:100030000900F550616F0900F550626F0900090071
:10004000F550E96E0900F550EA6E09000900090053
:10005000F550636F0900F550646F09000900F6CF91
:1000600067F0F7CF68F0F8CF69F060C0F6FF61C0C5
:10007000F7FF62C0F8FF0001635302E1645307E039
:100080000900F550EE6E6307F8E26407F9D767C020
:10009000F6FF68C0F7FF69C0F8FF00016507000EB2
:0600A000665BBFD71200F1
:0A00A600FF0EE350036EEF0E01D0D1
:1000B000F30EE76EE72E5AEF00F00C0E026EE76AC1
:1000C000E72E60EF00F0022E5FEF00F0032E58EFF6
:0400D00000F012002A
:0C00D400FC0ED36E9B8C936A816A8168DD
:1000E000A00EE66E53EC00F0E552816AA00EE66EBB
:0800F00053EC00F0E552F3D7D8
:0800F800000EF36E00EE00F0B3
:10010000030E01D81200EA6002D0EE6AFCD7F35069
:08011000E9601200EE6AFCD761
:0801180012EE00F022EE00F0EF
:10012000F86A019C04EC00F09AEC00F06AEC00F034
:04013000FBD71200E7
:020134001200B7
:020000040030CA
:0100010006F8
:010002001FDE
:010003001FDD
:01000500807A
:010006008178
:010008000FE8
:01000900C036
:01000A000FE6
:01000B00E014
:01000C000FE4
:01000D0040B2
:00000001FF
